:100000000C942A000C943C000C943C000C943C0092
:100010000C943C000C943C000C943C000C943C0070
:100020000C943C000C943C000C943C000C943C0060
:100030000C9425010C943C000C943C000C943C0066
:100040000C943C000C943C000C943C000C943C0040
:100050000C943C0011241FBECFE5D8E0DEBFCDBF1D
:1000600010E0A0E6B0E001C01D92AA36B107E1F7AA
:100070000E945E000C944C010C94000041E00E9430
:10008000FD0008951F9311E0812F60E00E943E0063
:100090001F5F1930C9F71F91089589E06FEF0E9423
:1000A0003E008AE06FE00E943E008BE067E00E9425
:1000B0003E008CE061E00E943E000895AF92BF9246
:1000C000DF92EF92FF920F931F93DF93CF93CDB701
:1000D000DEB729970FB6F894DEBF0FBECDBF80E123
:1000E00089831A821B821C821D821E821F82CE017E
:1000F00001960E94A1000E944D00EE24E394FF248B
:10010000F3940F2EF8E8AF2EF3E1BF2EF02D08EC9C
:1001100010E0DD24D3940DC08F2D6E2D0E943E0083
:100120009501C8010197F1F721503040D1F7E394D0
:10013000F39488E08F1580F70E944200ED2CFD2C8F
:10014000F8CFCF93DF93FC01C1E6D0E0DC0189E07A
:100150000D9009928150E1F72081318162815381B4
:10016000448175819681903829F4EFE5F0E0808133
:1001700080688083203171F4E7E3F0E080818F7044
:1001800080838081806B8083E8E3F0E08081806100
:1001900080830AC0222341F4E7E3F0E080818F707E
:1001A0008083808180648083822F832B8064862B70
:1001B000852B842B892B8DB97EB9DF91CF91089542
:1001C0001DB81EB8EFE5F0E080818F778083089539
:1001D000DC01E8E3F0E080818F7E80838C918FB931
:1001E000613029F4EEE2F0E080818823ECF7E8E367
:1001F000F0E08081806180830895E8E3F0E0908101
:100200009F7E90838FB9413031F4EEE2F0E080813F
:100210008823ECF70BC06FB903C080818823ECF70B
:10022000E8E3F0E080818061808308956FB9EEE2B9
:10023000F0E0F3CFDC01613029F4EEE2F0E0808100
:100240008823ECF78FB18C9308951F920F920FB60D
:100250000F9211242F933F934F935F936F937F934C
:100260008F939F93AF93BF93EF93FF93E0916800B9
:10027000F09169000995FF91EF91BF91AF919F9126
:100280008F917F916F915F914F913F912F910F903F
:0C0290000FBE0F901F901895F894FFCF40
:00000001FF
